S0130000536D61727420486F7573652E73726563E6
S11300000C9431000C9430040C9459040C94830423
S11300100C944E000C944E000C947A060C94280612
S11300200C9451060C94FF050C944E000C94D605C8
S11300300C94AC040C94C5060C944E000C94EE067F
S11300400C944E000C9407040C944E000C944E0037
S11300500C944E002D053A054705540561056E05BF
S11300607B0511241FBECFE5D8E0DEBFCDBF11E074
S1130070A0E6B0E0EAE4F2E102C005900D92A636F3
S1130080B107D9F722E0A6E6B1E001C01D92A53E72
S1130090B207E1F70E9418020C9423090C940000A3
S11300A0CF93C82F60E081E00E9478036C2F661F15
S11300B06627661F86E00E947803C6FB662760F900
S11300C085E00E947803C5FB662760F984E00E94FE
S11300D07803C4FB662760F983E00E94780361E03B
S11300E082E00E9478038FEC97E00197F1F700C05B
S11300F0000060E082E00E9478038FEC97E00197B3
S1130100F1F700C00000C3FB662760F986E00E9497
S11301107803C2FB662760F985E00E947803C1FB7F
S1130120662760F984E00E9478036C2F617083E095
S11301300E94780361E082E00E9478038FEC97E0EC
S11301400197F1F700C0000060E082E00E947803AC
S11301508FEC97E00197F1F700C00000CF9108956C
S1130160CF93C82F61E081E00E9478036C2F661F53
S11301706627661F86E00E947803C6FB662760F93F
S113018085E00E947803C5FB662760F984E00E943D
S11301907803C4FB662760F983E00E94780361E07A
S11301A082E00E9478038FEC97E00197F1F700C09A
S11301B0000060E082E00E9478038FEC97E00197F2
S11301C0F1F700C00000C3FB662760F986E00E94D7
S11301D07803C2FB662760F985E00E947803C1FBBF
S11301E0662760F984E00E9478036C2F617083E0D5
S11301F00E94780361E082E00E9478038FEC97E02C
S11302000197F1F700C0000060E082E00E947803EB
S11302108FEC97E00197F1F700C00000CF910895AB
S11302202FE788E391E0215080409040E1F700C03F
S1130230000082E00E94500088E20E9450008CE09E
S11302400E94500081E00E9450008FEC97E00197DB
S1130250F1F700C0000086E00E94500008950F935B
S11302601F93CF938C01C0E003C00E94B000CF5F06
S1130270F801EC0FF11D80818111F7CFCF911F910F
S11302800F9108950E94B00008951F93CF93DF93B8
S113029000D01F92CDB7DEB7182F19821A821B82A5
S11302A0811103C080E30E944201412F50E060E0CD
S11302B070E0CE0101960E94830810E003C00E9402
S11302C0B0001F5FE1E0F0E0EC0FFD1FE10FF11D56
S11302D080811817A0F30F900F900F90DF91CF91AA
S11302E01F910895CF93DF93C82FD62F811104C097
S11302F0862F80680E945000C13029F480E48D0F5D
S113030080680E945000DF91CF91089581E00E949F
S113031050008FEC97E00197F1F700C000000895BA
S1130320CF93C82F80916601811118C062E083E0E9
S11303300E94D50462E085E00E94230582E00E94C9
S1130340FF0482E00E948E0582E00E94B2058FEFD6
S113035090E097BD86BD81E0809366018C2F90E08C
S1130360FC01EE0FFF1FE80FF91FEE59FF4F8081CC
S11303708CBF818190E09BBD8ABD828190E099BD54
S113038088BDCF910895CF93C82F813021F461E0C7
S113039080E10E947803C23021F461E081E10E948F
S11303A07803C33041F461E081E10E94780361E0A5
S11303B080E10E947803CF910895CF93C82F8130B4
S11303C021F460E080E10E947803C23021F460E00F
S11303D081E10E947803C33041F460E081E10E942E
S11303E0780360E080E10E947803CF91089562E091
S11303F086E00E94230582E00E94B2058FE19EE41C
S11304009BBD8ABD0895282F30E0A8EEB3E00E947A
S1130410140924EB30E040E050E00E94CD0839BDDF
S113042028BD88B599B589519C4F99BD88BD08955B
S1130430CF93DF93CDB7DEB765970FB6F894DEBFE1
S11304400FBECDBF0E94F7030E9410010E945B0201
S11304500E94A3060E94F70178940E948307FE017C
S1130460319684E1DF011D928A95E9F7CE01019668
S11304700E9417088091E4028130C1F7BE016B5ECF
S11304807F4FCE0101960E9490076D89CE0101969F
S11304900E94AF07182F1092E4020E9486011F3FAA
S11304A029F488E391E00E942F01E0CF83E491E0F6
S11304B00E942F01DBCF80916000813059F018F049
S11304C0823079F014C087B18F7B87B987B18F7779
S11304D087B90DC087B1806487B987B18F7787B931
S11304E006C087B1806487B987B1806887B986B14F
S11304F0887F86B996B180916100892B86B986B1CF
S1130500806886B90895982F977061114EC088301D
S113051080F44AB321E030E0092E02C0220F331FD9
S11305200A94E2F7342F322B3ABB3BB320952323B2
S11305302BBB28EF280F283080F447B321E030E0AC
S1130540092E02C0220F331F0A94E2F7342F322BF4
S113055037BB38B32095232328BB20EF280F28303E
S113056080F444B321E030E0092E02C0220F331F8F
S11305700A94E2F7342F322B34BB35B3209523236E
S113058025BB28EE280F283080F441B321E030E069
S1130590092E02C0220F331F0A94E2F7342F322BA4
S11305A031BB32B32095232322BB613009F04EC006
S11305B0883080F44AB321E030E0092E02C0220FD3
S11305C0331F0A94E2F72095342F32233ABB3BB30E
S11305D023232BBB28EF280F283080F447B321E0D6
S11305E030E0092E02C0220F331F0A94E2F720954F
S11305F0342F322337BB38B3232328BB20EF280FF3
S1130600283080F444B321E030E0092E02C0220FE8
S1130610331F0A94E2F72095342F322334BB35B3C9
S1130620232325BB28EE280F283080F441B321E092
S113063030E0092E02C0220F331F0A94E2F72095FE
S1130640342F322331BB32B3232322BB623009F06F
S11306504EC0883080F44AB321E030E0092E02C055
S1130660220F331F0A94E2F7322F309534233ABB1A
S11306703BB3232B2BBB28EF280F283080F447B340
S113068021E030E0092E02C0220F331F0A94E2F762
S1130690322F3095342337BB38B3232B28BB20EFBC
S11306A0280F283080F444B321E030E0092E02C042
S11306B0220F331F0A94E2F7322F3095342334BBD0
S11306C035B3232B25BB8851883088F441B321E00E
S11306D030E0B90102C0660F771F9A95E2F7CB01AB
S11306E0962F9095942391BB92B3892B82BB089546
S11306F0982F977061113EC0883060F44BB321E0AD
S113070030E0092E02C0220F331F0A94E2F720952D
S113071024232BBB28EF280F283060F448B321E0B2
S113072030E0092E02C0220F331F0A94E2F720950D
S1130730242328BB20EF280F283060F445B321E0A0
S113074030E0092E02C0220F331F0A94E2F72095ED
S1130750242325BB28EE280F283060F442B321E07F
S113076030E0092E02C0220F331F0A94E2F72095CD
S1130770242322BB6130D1F5883058F44BB321E0F7
S113078030E0092E02C0220F331F0A94E2F7242B13
S11307902BBB28EF280F283058F448B321E030E071
S11307A0092E02C0220F331F0A94E2F7242B28BB20
S11307B020EF280F283058F445B321E030E0092E0B
S11307C002C0220F331F0A94E2F7242B25BB885161
S11307D0883060F442B321E030E0B90102C0660F12
S11307E0771F9A95E2F7CB01842B82BB0895CF93B0
S11307F0C0E009C0EC2FF0E0E85EFE4F60818C2F72
S11308000E948302CF5FC032A8F3CF9108951F9254
S11308100F920FB60F9211242F933F934F935F9330
S11308206F937F938F939F93AF93BF93EF93FF93B4
S1130830E0916701F0916801309709F00995FF9103
S1130840EF91BF91AF919F918F917F916F915F9144
S11308504F913F912F910F900FBE0F901F901895BD
S11308601F920F920FB60F9211242F933F934F9321
S11308705F936F937F938F939F93AF93BF93EF9304
S1130880FF93E0916D01F0916E01309709F00995A5
S1130890FF91EF91BF91AF919F918F917F916F9154
S11308A05F914F913F912F910F900FBE0F901F902A
S11308B0189578941F920F920FB60F9211242F93CC
S11308C03F934F935F936F937F938F939F93AF93D4
S11308D0BF93EF93FF93E0916B01F0916C0130971C
S11308E009F00995FF91EF91BF91AF919F918F917D
S11308F07F916F915F914F913F912F910F900FBE18
S11309000F901F9018951F920F920FB60F921124FB
S11309102F933F934F935F936F937F938F939F9303
S1130920AF93BF93EF93FF93E0916901F0916A0154
S1130930309709F00995FF91EF91BF91AF919F9185
S11309408F917F916F915F914F913F912F910F9074
S11309500FBE0F901F9018951F920F920FB60F9213
S113096011242F933F934F935F936F937F938F93B0
S11309709F93AF93BF93EF93FF93E0916F01F09137
S11309807001309709F00995FF91EF91BF91AF91F4
S11309909F918F917F916F915F914F913F912F9193
S11309A00F900FBE0F901F901895813069F028F0BA
S11309B0823089F08330B1F01BC083B78F7B83BF53
S11309C083B7877F83BF14C083B7806483BF83B733
S11309D0877F83BF0DC083B78F7B83BF83B7886056
S11309E083BF06C083B7806483BF83B7886083BF37
S11309F083B7887F83BF83B7682B63BF0895813033
S1130A0069F028F0823089F08330B1F0089583B71B
S1130A108F7E83BF83B78F7D83BF089583B7806143
S1130A2083BF83B78F7D83BF089583B78F7E83BFD2
S1130A3083B7806283BF089583B7806183BF83B720
S1130A40806283BF089590E08730910508F05FC00D
S1130A50FC01E65DFF4F0C940E098FB58E7F8FBDB0
S1130A608FB58D7F8FBD8EB5877F8EBD8EB58F7E02
S1130A708EBD4DC08FB58E7F8FBD8FB58D7F8FBDE1
S1130A808EB588608EBD8EB580618EBD40C08FB539
S1130A908E7F8FBD8FB58D7F8FBD8EB588608EBDE7
S1130AA08EB58F7E8EBD33C08FB58E7F8FBD8FB5D3
S1130AB08D7F8FBD8EB5877F8EBD8EB580618EBDD7
S1130AC026C08FB581608FBD8FB58D7F8FBD8EB5EC
S1130AD0877F8EBD8EB580618EBD19C08FB58E7F28
S1130AE08FBD8FB582608FBD8EB588608EBD8EB58B
S1130AF080618EBD0CC08FB581608FBD8FB5826063
S1130B008FBD8EB588608EBD8EB580618EBD8EB56D
S1130B10887F8EBD8EB5682B6EBD0895813069F0D7
S1130B2028F0823089F08330B1F008958FB58F7B3F
S1130B308FBD8FB58F778FBD08958FB580648FBDBE
S1130B408FB58F778FBD08958FB58F7B8FBD8FB590
S1130B5080688FBD08958FB580648FBD8FB5806820
S1130B608FBD0895813069F028F0823089F0833098
S1130B70B1F008958FB58F7E8FBD8FB58F7D8FBDFA
S1130B8008958FB580618FBD8FB58F7D8FBD08951A
S1130B908FB58F7E8FBD8FB580628FBD08958FB561
S1130BA080618FBD8FB580628FBD08951F920F92B3
S1130BB00FB60F9211242F933F934F935F936F932C
S1130BC07F938F939F93AF93BF93EF93FF93E091A2
S1130BD07701F0917801309709F00995FF91EF9131
S1130BE0BF91AF919F918F917F916F915F914F9141
S1130BF03F912F910F900FBE0F901F9018951F9249
S1130C000F920FB60F9211242F933F934F935F933C
S1130C106F937F938F939F93AF93BF93EF93FF93C0
S1130C20E0917901F0917A01309709F00995FF91EB
S1130C30EF91BF91AF919F918F917F916F915F9150
S1130C404F913F912F910F900FBE0F901F901895C9
S1130C501F920F920FB60F9211242F933F934F932D
S1130C605F936F937F938F939F93AF93BF93EF9310
S1130C70FF93E0917501F0917601309709F00995A1
S1130C80FF91EF91BF91AF919F918F917F916F9160
S1130C905F914F913F912F910F900FBE0F901F9036
S1130CA018951F920F920FB60F9211242F933F9312
S1130CB04F935F936F937F938F939F93AF93BF9360
S1130CC0EF93FF93E0917301F0917401309709F071
S1130CD00995FF91EF91BF91AF919F918F917F9172
S1130CE06F915F914F913F912F910F900FBE0F9095
S1130CF01F9018951F920F920FB60F9211242F93E5
S1130D003F934F935F936F937F938F939F93AF938F
S1130D10BF93EF93FF93E0917101F09172013097CB
S1130D2009F00995FF91EF91BF91AF919F918F9138
S1130D307F916F915F914F913F912F910F900FBED3
S1130D400F901F90189583E389B98BB18D7F8BB970
S1130D508AB188608AB98AB180618AB908958CB9E8
S1130D6008958CB108958AB180688AB908958AB1CA
S1130D7080648AB9089590937E0180937D010895DB
S1130D8090937C0180937B0108951F920F920FB67C
S1130D900F9211242F933F934F935F936F937F93FD
S1130DA08F939F93AF93BF93EF93FF93E0917D0154
S1130DB0F0917E01309709F00995FF91EF91BF9171
S1130DC0AF919F918F917F916F915F914F913F91DF
S1130DD02F910F900FBE0F901F9018951F920F9296
S1130DE00FB60F9211242F933F934F935F936F93FA
S1130DF07F938F939F93AF93BF93EF93FF93E09170
S1130E007B01F0917C01309709F00995FF91EF91F6
S1130E10BF91AF919F918F917F916F915F914F910E
S1130E203F912F910F900FBE0F901F901895CF9365
S1130E30DF93C0918001D0E00E94B106C055DD4F20
S1130E40888380918001E82FF0E0E055FD4F908188
S1130E509D3021F481E08093820108C08F5F8093EC
S1130E608001809183018F5F80938301DF91CF9113
S1130E70089580917F01813039F4809177008F5FEC
S1130E808093770010927F012091CE02422F50E090
S1130E90FA01EE0FFF1FE053FD4F0190F081E02DAA
S1130EA080917700E80FF11D8081882341F00E9432
S1130EB0AF06809177008F5F8093770008958091CB
S1130EC0CF0290E0019748175907ACF42F5F2093A5
S1130ED0CE0210927700E22FF0E0EE0FFF1FE053F6
S1130EE0FD4F0190F081E02D80810E94AF0681E0EA
S1130EF080937F01089581E0809377001092CE0261
S1130F001092CF02089589E397E00E94C00687E11A
S1130F1097E00E94BB060E94B7060E94B30608959C
S1130F20CF93DF93EC01DB011C9220E00FC030ED86
S1130F30390F3A3050F43C91330F432F440F440F90
S1130F40340F930F90539C9310822F5FFE01E20F96
S1130F50F11D90819111EBCFDF91CF910895EF9224
S1130F60FF920F931F93CF93DF937C01D62FC0E0A2
S1130F7025C00C2F10E0C801880F991F8295929507
S1130F80907F9827807F9827B70188589F4F0E94A9
S1130F906D08813091F4000F111F02951295107F96
S1130FA01027007F1027F801E858FF4F068CF78DB3
S1130FB0E02D8D2F09958C2F04C0CF5FC530C8F26A
S1130FC08FEFDF91CF911F910F91FF90EF900895D4
S1130FD0AC01309181013A30B1F40E94860160E0A5
S1130FE081E00E9472018BE491E00E942F01089538
S1130FF08EE1389FF0011124EC57FE4FE90FF11DEB
S113100020839F5F01C090E0FA01E90FF11D208168
S11310102111EECF8EE1389FF0011124EC57FE4FE1
S1131020E90FF11D10823F5F309381010895BC01E7
S113103080918201813021F50AC0FB01E90FF11D85
S1131040DA01A055BD4F2C9120839F5F01C090E031
S1131050492F50E02091800130E02150310942179E
S113106053075CF3FB01E90FF11D1082CB010E94D1
S1131070E807109280011092820181E08093E402DB
S113108008959C0180E001C08F5FF901E80FF11D14
S113109090819111F9CF0895CF93DF93EC010E94D1
S11310A0410890E00EC0DE01A90FB11D2C91E82F7C
S11310B0F0E03197EC0FFD1F30813C932083815089
S11310C09F5F492F50E0282F30E021503109241729
S11310D035074CF7DF91CF910895DC0120E030E033
S11310E008C0FB01E20FF31F408194130AC02F5F75
S11310F03F4FFD01E20FF31F90819111F2CF81E088
S1131100089580E008950F931F93CF93DF93EC012C
S1131110CB01BA01611571058105910519F420E32C
S11311202883198699234CF4909580957095619540
S11311307F4F8F4F9F4F01E001C000E010E014C0CB
S11311402AE030E040E050E00E94EF08DC01CB01EF
S1131150C096A11DB11DFE01E10FF11D8083622F18
S1131160732F842F952F1F5F6115710581059105DC
S113117039F7013031F4FE01E10FF11D8DE2808376
S11311801F5FFE01E10FF11D1082CE010E944C0889
S1131190DF91CF911F910F910895A1E21A2EAA1BFE
S11311A0BB1BFD010DC0AA1FBB1FEE1FFF1FA21713
S11311B0B307E407F50720F0A21BB30BE40BF50B10
S11311C0661F771F881F991F1A9469F76095709599
S11311D0809590959B01AC01BD01CF010895052E2A
S11311E097FB1EF400940E94060957FD07D00E9445
S11311F0CD0807FC03D04EF40C9406095095409595
S1131200309521953F4F4F4F5F4F089590958095AE
S1131210709561957F4F8F4F9F4F0895EE0FFF1F7D
S11312200590F491E02D0994A29FB001B39FC001F1
S1131230A39F700D811D1124911DB29F700D811DFE
S10D12401124911D0895F894FFCFC6
S113124A0106FF000000FF000000FFFFFFFFFFFF91
S113125A0000FFFFFF149301534552564F0000004C
S113126A0000000000000000000000000000000070
S113127A00000000000003024C4544534F4E000096
S113128A0000000000000000000000000000000050
S113129A000000000000C3014C4544534F46460079
S11312AA0000000000000000000000000000000030
S11312BA000000000000DD01524742000000000067
S11312CA0000000000000000000000000000000010
S11312DA00000000000090014C434400000000009C
S11312EA00000000000000000000000000000000F0
S11312FA0000000000004501010000000000000198
S113130A00000200000000000200000000000000CB
S113131A010002020202020077726F6E6720746192
S113132A736B005441534B204F4B00535441434B6E
S113133A2046554C4C00535441434B2049532045B5
S109134A4D50545900004F
S9030000FC
