S0130000536D61727420486F7573652E73726563E6
S11300000C9431000C940F090C9438090C94620977
S11300100C944E000C944E000C94320B0C94E00A99
S11300200C94090B0C94B70A0C94180A0C94EF095D
S11300300C948B090C94730B0C944E000C949C0B35
S11300400C944E000C94E6080C944E000C944E0054
S11300500C944E004B0A530A580A630A650A6D0A47
S11300606F0A11241FBECFE5D8E0DEBFCDBF12E07A
S1130070A0E6B0E0EEE6FBE102C005900D92AA33E3
S1130080B107D9F725E0AAE3B2E001C01D92A5317A
S1130090B207E1F70E947F030C94B50D0C940000A5
S11300A010921205109211050E94400390930F05BF
S11300B080930E05209110052A3010F0109210053F
S11300C020911005E22FF0E0EE0FFF1FE650FB4FEA
S11300D0918380838091110590911205EAEFF4E0F9
S11300E041915191840F951F35E0EE30F307C1F72C
S11300F0909312058093110540913A0231E0320F3A
S113010041110EC0632F70E00E944B0D70931205D5
S113011060931105293071F481E080933A020AC09A
S1130120413041F46AE070E00E944B0D7093120577
S113013060931105309310050895809111059091F5
S11301401205089510921305089581E08093130514
S11301500895813011F486E103C0823019F48BE1F3
S11301600C94FE02089587E10C94FE02813011F490
S113017086E103C0823019F48BE10C9401030895E5
S113018087E10C940103CF93C82F0E9455038AE1A1
S11301900E94FE02C11104C08AE1CF910C940103B4
S11301A0CF910895CF93C82F0E946A0387E10E94DC
S11301B0FE02C11104C087E1CF910C940103CF91D9
S11301C00895843118F483E00C9404039CEE980F92
S11301D09A3018F486E490E00CC092EE980F9A30AE
S11301E018F480E590E005C088528A3060F784E610
S11301F090E00E94D20B83E00C942203CF93DF9310
S1130200EC01FB01108240E0DE01A40FB11D9C91C2
S1130210992381F080ED890F8A3050F42081220FD8
S1130220322F330F330F230F2053920F90831C92DE
S11302304F5FEACFDF91CF910895DF92EF92FF9263
S11302400F931F93CF93DF937C01D62E00E610E02B
S1130250C0E0D0E0B701C8010E94E60C813079F417
S1130260FE0185E0EE0FFF1F8A95E1F7E05AFF4F8C
S1130270068CF78DE02D8D2D09958C2F07C02196C6
S1130280005E1F4FC830D10529F78FEFDF91CF9162
S11302901F910F91FF90EF90DF900895FB019C0157
S11302A02B5F3F4FDC015D91CD014191541305C09B
S11302B0A217B307B9F781E0089580E00895CF93BA
S11302C0CCE061E08C2F0E941108CF5FC031C9F7E8
S11302D0CF910895DF92EF92FF920F931F93CF93E4
S11302E0DF9393E8E92E91E0F92ECCE0DBE660E0C1
S11302F08C2F0E94110800E010E082E1D82ED00E6D
S11303008D2D0E948B08811115C0F701E00FF11F9C
S1130310D0818FE19EE40197F1F700C000008D2D9C
S11303200E948B088823D9F38FE19EE40197F1F7AB
S113033000C000000F5F1F4F04301105F1F661E0AB
S11303408C2F0E941108CF5F94E0E90EF11CC0319C
S113035071F68D2FDF91CF911F910F91FF90EF9048
S1130360DF900895CF93C82F60E081E00E941108C8
S11303706C2F661F6627661F86E00E941108C6FB65
S1130380662760F985E00E941108C5FB662760F9BD
S113039084E00E941108C4FB662760F983E00E9490
S11303A0110861E082E00E9411088FEC97E0019748
S11303B0F1F700C0000060E082E00E9411088FECB9
S11303C097E00197F1F700C00000C3FB662760F9CE
S11303D086E00E941108C2FB662760F985E00E944E
S11303E01108C1FB662760F984E00E9411086C2F94
S11303F0617083E00E94110861E082E00E941108AC
S11304008FEC97E00197F1F700C0000060E082E014
S11304100E9411088FEC97E00197F1F700C00000EB
S1130420CF910895CF93C82F61E081E00E94110815
S11304306C2F661F6627661F86E00E941108C6FBA4
S1130440662760F985E00E941108C5FB662760F9FC
S113045084E00E941108C4FB662760F983E00E94CF
S1130460110861E082E00E9411088FEC97E0019787
S1130470F1F700C0000060E082E00E9411088FECF8
S113048097E00197F1F700C00000C3FB662760F90D
S113049086E00E941108C2FB662760F985E00E948D
S11304A01108C1FB662760F984E00E9411086C2FD3
S11304B0617083E00E94110861E082E00E941108EB
S11304C08FEC97E00197F1F700C0000060E082E054
S11304D00E9411088FEC97E00197F1F700C000002B
S11304E0CF9108952FE788E391E021508040904018
S11304F0E1F700C0000082E00E94B20188E20E949D
S1130500B2018CE00E94B20181E00E94B2018FEC42
S113051097E00197F1F700C0000086E00C94B20167
S11305200F931F93CF938C01C0E0F801EC0FF11DE2
S11305308081882321F00E941202CF5FF6CFCF91F1
S11305401F910F9108950C9412028F929F92AF9273
S1130550BF92EF92FF921F93CF93DF93CDB7DEB795
S11305602A970FB6F894DEBF0FBECDBF4B015C01D6
S1130570CE0101967C018AE0F70111928A95E9F790
S113058081149104A104B10419F480E30E941202BD
S1130590B501A401C7010E94F20C10E0F701E10FBC
S11305A0F11D8081181720F40E9412021F5FF6CFFC
S11305B02A960FB6F894DEBF0FBECDBFDF91CF9160
S11305C01F91FF90EF90BF90AF909F908F900895F0
S11305D0811102C0862F04C0813029F480E4860F83
S11305E080680C94B201089581E00E94B2018FECFE
S11305F097E00197F1F700C00000089561E00C94C2
S1130600110860E00C9411080F931F93CF93DF93AC
S1130610D82F03E911E0C0E0DC130AC060E0F80160
S113062080810E94110860E0F80181810E94110814
S1130630CF5F0E5F1F4FC43079F7DF91CF911F91C9
S11306400F9108950F931F93CF93DF93D82F03E94E
S113065011E0C0E0DC130AC061E0F80180810E946F
S1130660110860E0F80181810E941108CF5F0E5FDC
S11306701F4FC43079F7DF91CF911F910F910895E7
S113068080E00C94130787E00C94130762E085E084
S11306900E94410A82E00E949C0A82E00E94810A30
S11306A08FE19EE497BD86BD0895282F30E0A8EE23
S11306B0B3E00E94A60D24EB30E040E050E00E943D
S11306C05F0D3BBD2ABD8AB59BB589519C4F9BBD2F
S11306D08ABD0895282F30E0A8EEB3E00E94A60D4D
S11306E024EB30E040E050E00E945F0D39BD28BDAE
S11306F088B599B589519C4F99BD88BD0895CF930C
S1130700DF93CDB7DEB7E8970FB6F894DEBF0FBE20
S1130710CDBF0E94C2080E94EF060E945B0B0E949C
S11307205F010E9472020E94460362E083E00E941D
S1130730B40982E00E94D4090E94540C78949E016A
S11307402F5F3F4F790188E2F90111928A95E9F709
S113075085E090E00E94DF089E01225D3F4F690121
S1130760590100E010E0882341F1F50111925F0185
S1130770B80180E00E94D5080F5F1F4F05301105B6
S1130780A1F765E070E080E00E94D50866E070E0C3
S113079080E00E94D5081FAA00E010E0F1E0F8AF65
S11307A0512CA12CB12C25E0222E312C1EAA9E0105
S11307B02D5C3F4F3DAB2CAB13C0C8010E94DF083A
S11307C0F50181935F010F5F1F4F05301105A9F7F4
S11307D086E090E00E94DF088FABDECF552453946F
S11307E087E00E94C50BEFA9E13061F560E080E08D
S11307F00E94E8028BE991E00E949002FFEF27E853
S113080033E1F15020403040E1F700C000003601F0
S113081041018C189D08B401660D771DF3011192F6
S11308203F0180E00E94D5082CA93DA92615370573
S113083091F735E0230E311C66E070E080E00E9401
S1130840D5081FAA0E946A01982E0E945000C70171
S11308500E949D0C51101AC00E94F40260E080E0D6
S11308600E94E80286EB91E00E94900260E081E041
S11308700E94E80283EC91E00E94900266E081E02D
S11308800E94E80286EC91E00E9490028091130598
S1130890811104C0802F0E94E10007C080911305DC
S11308A0813019F483E00E9404030E949D006AE0F1
S11308B070E00E944B0D8B0162E081E00E94E8022F
S11308C0B80180E090E00E94A5028EE192E00E94CF
S11308D090020233110520F00E94F402912CF9C019
S11308E080911405813061F4BE016D5C7F4FC701B6
S11308F00E94FE006BA9C7010E941D0110921405FD
S113090083E698126BCF0E94F40260E080E00E94BC
S1130910E80288EC91E00E949002712C87E00E942A
S1130920C50B0E946A0180538A30C0F79EA99111B9
S11309306DC099E2892E912C8C0E9D1E870C911C02
S1130940F4018083672D81E00E94E802F401608154
S113095070E080E090E00E94A5028FE39CE901979B
S1130960F1F700C00000672D81E00E94E8028AE2EE
S11309700E94A302739495E07912D0CFB601CE0100
S113098089960E944E018130A9F40E94F40260E02D
S113099080E00E94E80287ED91E00E94900266E008
S11309A070E081E00E94D508E1E0EFAB712CF1E04A
S11309B0FEABB4CF0E94F40260E080E00E94E80243
S11309C086EE91E00E9490022FEFA21AB20A33E061
S11309D0A316B10409F0A1CF0E94F40260E080E004
S11309E00E94E80281EF91E00E9490028FEF99E566
S11309F0E2E6F2E081509040E040F040D9F700C0D8
S1130A0000000E94F402A12CB12CE6C12EA92130D1
S1130A1009F084CF4601870C911CF4018083672D73
S1130A2081E00E94E802F401608170E080E090E0DF
S1130A300E94A5028FE39CE90197F1F700C0000032
S1130A40672D81E00E94E8028AE20E94A302739467
S1130A5095E0791263CF0E94F4024601212C312CD7
S1130A60B101F40181914F010E94D508FFEF2F1AC3
S1130A703F0A25E02216310499F766E070E080E031
S1130A800E94D5080E94F40260E080E00E94E8021F
S1130A9087E092E00E9490023FEF82E597E03150B8
S1130AA080409040E1F700C000001FAA95C18091EA
S1130AB01405813061F4BE016D5C7F4FC7010E9453
S1130AC0FE006BA9C7010E941D0110921405992410
S1130AD0939487E00E94C50BC7010E949D0C0E945D
S1130AE0500091102DC00E94F40260E080E00E944A
S1130AF0E8028CE092E00E94900261E081E10E94B1
S1130B00110860E081E00E94E80283EC91E00E9419
S1130B10900266E081E00E94E80286EC91E00E9487
S1130B2090026AE081E00E94E80287E192E00E947C
S1130B3090026FE081E00E94E80285E20E94A30235
S1130B4080911305811104C0802F0E94E10007C029
S1130B5080911305813019F483E00E9404030E94FC
S1130B609D006AE070E00E944B0D8B0162E081E021
S1130B700E94E802B80180E090E00E94A5028EE1A4
S1130B8092E00E9490020E9443039C01A4E6B0E01C
S1130B900E94A60D23E833E140E050E00E945F0D7F
S1130BA029013A016CE081E00E94E802C301B2012C
S1130BB00E94A5028EE192E00E949002F2E34F1699
S1130BC051046104710448F060E081E10E9411085D
S1130BD00E94F402712C912C4EC00932110508F0C8
S1130BE066CF60E081E10E9411080E94F402E7C030
S1130BF00E949D006AE070E00E944B0D8B0162E050
S1130C0081E00E94E802B80180E090E00E94A50221
S1130C108EE192E00E9490020E9443034C016CE03A
S1130C2081E00E94E8029401A4E6B0E00E94A60DCF
S1130C3023E833E140E050E00E945F0DCA01B901AE
S1130C400E94A5028EE192E00E9490022BE66212BD
S1130C5057C09924939480911405813061F4BE01A6
S1130C606D5C7F4FC7010E94FE006BA9C7010E9403
S1130C701D011092140587E00E94C50B0E946A01B1
S1130C80682E0E9450009110B3CF0E94F40260E0DD
S1130C9080E00E94E8028AE192E00E94900286E1EC
S1130CA00E9401038BE10E94010382E00E9422035F
S1130CB061E08AE00E94110861E080E10E9411086D
S1130CC060E081E00E94E80283EC91E00E949002DF
S1130CD066E081E00E94E80286EC91E00E949002C6
S1130CE06AE081E00E94E80287E192E00E949002BB
S1130CF06FE081E00E94E80285E20E94A30278CFBF
S1130D0080ED860D8A3008F03FC0E9E2F0E0EC0F98
S1130D10FD1FE70DF11D8083739435E073123AC013
S1130D20B601CE0189960E944E01813009F44CC06F
S1130D300E94F40260E080E00E94E80286EE91E006
S1130D400E9490028FEFA81AB80A93E0A916B10482
S1130D5009F040C00E94F40260E080E00E94E802D2
S1130D6081EF91E00E949002EFEFF9E522E632E094
S1130D70E150F04020403040D9F700C000000E940C
S1130D80F402712C912C08C08DE3681203C09EA953
S1130D90913031F099249394E8ADE11112C001C06F
S1130DA01EAA60E08AE00E94110860E080E10E94CF
S1130DB0110882E00E9404030E94F40218AE512C30
S1130DC00FCDF1E0F8AF47CF712C9924939421E033
S1130DD02EABE2CF712CDECF512C1EAA01CD809117
S1130DE06001813041F028F0823039F43E9A3F9A14
S1130DF004C03E9801C03E9A3F9886B1887F86B968
S1130E0096B180916101892B86B9379A089597B17B
S1130E10907E97B997B1892B87B9369A3699FECFC8
S1130E2084B195B108950E9407079C01A8E8B3E135
S1130E300E94A60DDC01CB012AE0B695A7959795F3
S1130E4087952A95D1F70895982F977061114BC013
S1130E50883078F44AB321E030E0092E01C0220F33
S1130E600A94EAF7342F322B3ABB3BB32095232361
S1130E702BBB28EF280F283078F447B321E030E06B
S1130E80092E01C0220F0A94EAF7342F322B37BB04
S1130E9038B32095232328BB20EF280F283078F47B
S1130EA044B321E030E0092E01C0220F0A94EAF78E
S1130EB0342F322B34BB35B32095232325BB8851E3
S1130EC0883008F0ADC041B321E030E0B90102C080
S1130ED0660F771F9A95E2F7CB01942F982B91BB5D
S1130EE092B380954DC0613009F04CC0883078F4DD
S1130EF04AB321E030E0092E01C0220F0A94EAF738
S1130F002095342F32233ABB3BB323232BBB28EF4A
S1130F10280F283078F447B321E030E0092E01C0CF
S1130F20220F0A94EAF72095342F322337BB38B3C3
S1130F30232328BB20EF280F283078F444B321E082
S1130F4030E0092E01C0220F0A94EAF72095342FCD
S1130F50322334BB35B3232325BB8851883008F0B2
S1130F605FC041B321E030E0B90102C0660F771FD2
S1130F709A95E2F7CB018095942F982391BB92B375
S1130F8089234DC0623009F04BC0883078F44AB3ED
S1130F9021E030E0092E01C0220F0A94EAF7322F33
S1130FA0309534233ABB3BB3232B2BBB28EF280FBC
S1130FB0283078F447B321E030E0092E01C0220F35
S1130FC00A94EAF7322F3095342337BB38B3232BF6
S1130FD028BB20EF280F283078F444B321E030E018
S1130FE0092E01C0220F0A94EAF7322F30953423D8
S1130FF034BB35B3232B25BB8851883088F441B3E7
S113100021E030E0B90102C0660F771F9A95E2F73C
S1131010CB01962F9095942391BB92B3892B82BBDD
S11310200895982F977061113CC0883058F44BB3E1
S113103021E030E0092E01C0220F0A94EAF720953E
S113104024232BBB28EF280F283058F448B321E081
S113105030E0092E01C0220F0A94EAF720952423D8
S113106028BB20EF280F283058F445B321E030E0A6
S1131070092E01C0220F0A94EAF72095242325BBE8
S11310808851883008F046C042B321E030E0B9010D
S113109002C0660F771F9A95E2F7CB0180958423EF
S11310A038C06130B9F5883050F44BB321E030E0FA
S11310B0092E01C0220F0A94EAF7242B2BBB28EF38
S11310C0280F283050F448B321E030E0092E01C045
S11310D0220F0A94EAF7242B28BB20EF280F28308C
S11310E050F445B321E030E0092E01C0220F0A94E8
S11310F0EAF7242B25BB8851883060F442B321E001
S113110030E0B90102C0660F771F9A95E2F7CB0170
S1131110842B82BB0895482F4770883050F429B33C
S113112030E0042E02C0359527950A94E2F7217029
S113113001C020E098EF980F983048F426B330E0CF
S1131140042E02C0359527950A94E2F7217090EF9A
S1131150980F983048F423B330E0042E02C035953C
S113116027950A94E2F721708851883048F480B3B7
S113117090E002C0959587954A95E2F7282F217053
S1131180822F08950F931F93CF9303E611E0C0E0DD
S1131190F80161918F018C2F0E942407CF5FC03228
S11311A0B9F7CF911F910F910895E199FECF7FBBBD
S11311B06EBB8DBBF894E29AE19A78940895E19914
S11311C0FECF9FBB8EBBE09A8DB308951F920F9202
S11311D00FB60F9211242F933F934F935F936F9306
S11311E07F938F939F93AF93BF93EF93FF93E0917C
S11311F03B02F0913C02309709F00995FF91EF9181
S1131200BF91AF919F918F917F916F915F914F911A
S11312103F912F910F900FBE0F901F9018951F9222
S11312200F920FB60F9211242F933F934F935F9316
S11312306F937F938F939F93AF93BF93EF93FF939A
S1131240E0914102F0914202309709F00995FF9133
S1131250EF91BF91AF919F918F917F916F915F912A
S11312604F913F912F910F900FBE0F901F901895A3
S113127078941F920F920FB60F9211242F933F93DD
S11312804F935F936F937F938F939F93AF93BF938A
S1131290EF93FF93E0913F02F0914002309709F001
S11312A00995FF91EF91BF91AF919F918F917F919C
S11312B06F915F914F913F912F910F900FBE0F90BF
S11312C01F9018951F920F920FB60F9211242F930F
S11312D03F934F935F936F937F938F939F93AF93BA
S11312E0BF93EF93FF93E0913D02F0913E0230975C
S11312F009F00995FF91EF91BF91AF919F918F9163
S11313007F916F915F914F913F912F910F900FBEFD
S11313100F901F9018951F920F920FB60F921124E1
S11313202F933F934F935F936F937F938F939F93E9
S1131330AF93BF93EF93FF93E0914302F091440284
S1131340309709F00995FF91EF91BF91AF919F916B
S11313508F917F916F915F914F913F912F910F905A
S11313600FBE0F901F901895813059F038F08230DD
S113137071F0833091F483B780640BC083B78F7BA3
S113138002C083B7806483BF83B7877F05C083B7F8
S11313908F7B83BF83B7886083BF83B7887F83BF16
S11313A083B7682B63BF0895813049F028F08230F9
S11313B061F0833069F0089583B78F7E02C083B7EC
S11313C0806183BF83B78F7D08C083B78F7E02C0DF
S11313D083B7806183BF83B7806283BF08951F9200
S11313E00F920FB60F9211242F933F934F935F9355
S11313F06F937F938F939F93AF93BF93EF93FF93D9
S1131400E0914B02F0914C02309709F00995FF915D
S1131410EF91BF91AF919F918F917F916F915F9168
S11314204F913F912F910F900FBE0F901F901895E1
S11314301F920F920FB60F9211242F933F934F9345
S11314405F936F937F938F939F93AF93BF93EF9328
S1131450FF93E0914D02F0914E02309709F0099507
S1131460FF91EF91BF91AF919F918F917F916F9178
S11314705F914F913F912F910F900FBE0F901F904E
S1131480189590E087309105A8F5FC01E65DFF4FC3
S11314908FB50C94A00D8E7F8FBD8FB58D7F8FBDC2
S11314A08EB5877F0CC08E7F8FBD8FB58D7F1BC09F
S11314B08E7F8FBD8FB58D7F8FBD8EB588608EBDBD
S11314C08EB58F7E16C08E7F01C081608FBD8FB5B3
S11314D08D7F8FBD8EB5877F09C08E7F01C08160EF
S11314E08FBD8FB582608FBD8EB588608EBD8EB581
S11314F080618EBD8EB5887F8EBD8EB5682B6EBD26
S11315000895813049F028F0823061F0833069F029
S113151008958FB58F7B02C08FB580648FBD8FB562
S11315208F7708C08FB58F7B02C08FB580648FBD65
S11315308FB580688FBD0895813049F028F08230DE
S113154061F0833069F008958FB58F7E02C08FB546
S113155080618FBD8FB58F7D08C08FB58F7E02C02F
S11315608FB580618FBD8FB580628FBD08951F9246
S11315700F920FB60F9211242F933F934F935F93C3
S11315806F937F938F939F93AF93BF93EF93FF9347
S1131590E0914F02F0915002309709F00995FF91C4
S11315A0EF91BF91AF919F918F917F916F915F91D7
S11315B04F913F912F910F900FBE0F901F90189550
S11315C01F920F920FB60F9211242F933F934F93B4
S11315D05F936F937F938F939F93AF93BF93EF9397
S11315E0FF93E0914902F0914A02309709F009957E
S11315F0FF91EF91BF91AF919F918F917F916F91E7
S11316005F914F913F912F910F900FBE0F901F90BC
S113161018951F920F920FB60F9211242F933F9398
S11316204F935F936F937F938F939F93AF93BF93E6
S1131630EF93FF93E0914702F0914802309709F04D
S11316400995FF91EF91BF91AF919F918F917F91F8
S11316506F915F914F913F912F910F900FBE0F901B
S11316601F9018951F920F920FB60F9211242F936B
S11316703F934F935F936F937F938F939F93AF9316
S1131680BF93EF93FF93E0914502F09146023097A8
S113169009F00995FF91EF91BF91AF919F918F91BF
S11316A07F916F915F914F913F912F910F900FBE5A
S11316B00F901F90189583E389B95998539A549AB7
S11316C008958CB908958CB10895579A0895569A3F
S11316D00895909354028093530208959093520274
S11316E08093510208951F920F920FB60F92112406
S11316F02F933F934F935F936F937F938F939F9316
S1131700AF93BF93EF93FF93E0915302F091540290
S1131710309709F00995FF91EF91BF91AF919F9197
S11317208F917F916F915F914F913F912F910F9086
S11317300FBE0F901F9018951F920F920FB60F9225
S113174011242F933F934F935F936F937F938F93C2
S11317509F93AF93BF93EF93FF93E0915102F09166
S11317605202309709F00995FF91EF91BF91AF9123
S11317709F918F917F916F915F914F913F912F91A5
S11317800F900FBE0F901F901895F89498E191BD9B
S113179011BC78948860F89491B5986191BD81BD2D
S11317A0789408958536910598F4A0E0B0E0662712
S11317B0782F892F9A2F24E630E040E050E00E94F1
S11317C05F0D2230310518F021502CBF08951CBE46
S11317D00895CF93DF93C0915602D0E00E94630B2B
S11317E0CE54DB4F888380915602E82FF0E0EE540C
S11317F0FB4F90819D3021F481E08093580208C012
S11318008F5F80935602809159028F5F80935902B3
S1131810DF91CF91089580915502813039F4809100
S113182062018F5F8093620110925502E091D004AF
S11318302E2F30E0D901AA0FBB1FAE52BB4F8091AF
S113184062010D90BC91A02DA80FB11D8C9188232D
S113185041F00E94610B809162018F5F809362016D
S113186008958091D10490E0019728173907A4F4D2
S1131870EF5FE093D00410926201F0E0EE0FFF1FDF
S1131880EE52FB4F0190F081E02D80810E94610BAC
S113189081E080935502089581E080936201109263
S11318A0D0041092D10408958BE09CE00E946E0B4A
S11318B089EE9BE00E94690B0E94670B0C94650BF8
S11318C0CF93DF93EC0190915702943151F040E0B3
S11318D0E92FF0E08EE1989FB0011124665A7D4F04
S11318E00CC00E94F40260E081E00E94E80280E201
S11318F092E0DF91CF910C949002242F30E0DE012E
S1131900A20FB31F5C91552331F0DB01A20FB31F6B
S11319105C934F5FF2CF8EE18E9FA0018F9F500D9D
S11319201124465A5D4FFA01E20FF31F10829F5FA4
S113193090935702DF91CF9108952091580221305E
S1131940D1F420915602A2EBB4E0482FFC013E2FC3
S1131950341B321718F43D913193F9CFFC01E20F97
S1131960F11D10820E94600C1092560210925802CF
S113197081E08093140508959C0180E0F901E80F4B
S1131980F11D9081992311F08F5FF8CF0895CF93C3
S1131990DF93EC010E94BC0C90E0282F291B30E05F
S11319A0492F50E04217530774F4DE01A40FB51F0A
S11319B04C9121503109FE01E20FF31F20812C9339
S11319C040839F5FEACFDF91CF910895DC01FB0153
S11319D09D91992329F081919817D1F380E008957E
S11319E081E00895CF92DF92EF92FF920F931F93BD
S11319F0CF93DF93EC01411551056105710529F47D
S1131A0080E38883198680E037C077FF09C070952A
S1131A106095509541955F4F6F4F7F4F01E001C036
S1131A2000E010E08AE0C82ED12CE12CF12CCB018F
S1131A30BA01A70196010E94810DDA01AB01BC0134
S1131A40405D5F4F6F4F7F4FFE01E10FF11D4083FB
S1131A50A901BD0181E0810F4115510561057105A1
S1131A6011F0182FE4CF013039F4FE01E80FF11D15
S1131A708DE2808382E0810FFE01E80FF11D108268
S1131A80CE01DF91CF911F910F91FF90EF90DF90E6
S1131A90CF900C94C70CAA1BBB1B51E107C0AA1F13
S1131AA0BB1FA617B70710F0A61BB70B881F991FFB
S1131AB05A95A9F780959095BC01CD010895A1E2AE
S1131AC01A2EAA1BBB1BFD010DC0AA1FBB1FEE1FB4
S1131AD0FF1FA217B307E407F50720F0A21BB30BFF
S1131AE0E40BF50B661F771F881F991F1A9469F77B
S1131AF060957095809590959B01AC01BD01CF01D7
S1131B000895052E97FB1EF400940E94980D57FD2E
S1131B1007D00E945F0D07FC03D04EF40C94980D7F
S1131B2050954095309521953F4F4F4F5F4F089505
S1131B3090958095709561957F4F8F4F9F4F089535
S1131B40EE0FFF1F0590F491E02D0994A29FB001C0
S1131B50B39FC001A39F700D811D1124911DB29FDD
S1111B60700D811D1124911D0895F894FFCF7E
S1131B6E444F4F520000000000000000000000002F
S1131B7E0000000000000000000000000000C30090
S1131B8E474152414745000000000000000000009C
S1131B9E0000000000000000000000000000D20061
S1131BAE524D4F4E000000000000000000000000E7
S1131BBE0000000000000000000000000000A9006A
S1131BCE524D4F4646000000000000000000000089
S1131BDE0000000000000000000000000000B6003D
S1131BEE474F4E00000000000000000000000000FF
S1131BFE0000000000000000000000000000B30020
S1131C0E474F4646000000000000000000000000A0
S1131C1E0000000000000000000000000000C000F2
S1131C2E4149524F4E000000000000000000000029
S1131C3E0000000000000000000000000000A200F0
S1131C4E4149524F464600000000000000000000CB
S1131C5E0000000000000000000000000000A500CD
S1131C6E0106010100000000000001000000000058
S1131C7E0000000000020202020000010000000049
S1131C8E0000003738392F3435362A3132332D637C
S1131C9E303D2B0001020308091E1F596F75722077
S1131CAE6C6173742070617373206469646E27743D
S1131CBE20736176650020202020204E4F524D4126
S1131CCE4C2000543A004300456E746572206F6CCC
S1131CDE64205061737300456E746572206E65776F
S1131CEE20506173730077726F6E67207061737327
S1131CFE006C6F636B656420666F722033302073E3
S1131D0E65636F6E647300444F4E4500202020209F
S1131D1E20484541542000533A004649524520007C
S1131D2E535441434B2046554C4C00535441434B62
S10D1D3E20495320454D505459002C
S9030000FC
